:100000000C947C000C9499000C9499000C94990029
:100010000C9499000C9499000C9499000C949900FC
:100020000C9499000C9499000C9499000C949900EC
:100030000C9499000C9499000C9499000C949900DC
:100040000C9499000C9499000C9499000C949900CC
:100050000C9499000C9499000C9499000C949900BC
:100060000C9499000C9499000C9499000C949900AC
:100070000C9499000C9499000C9499000C9499009C
:100080000C9499000C9499000C9499000C9499008C
:100090000C9499000C9499000C9499000C9499007C
:1000A0000C9499000C9499000C949900084AD73B41
:1000B0003BCE016E84BCBFFDC12F3D6C74319ABD37
:1000C00056833DDA3D00C77F11BED9E4BB4C3E915B
:1000D0006BAAAABE000000803F05A84CCDB2D44E4A
:1000E000B93836A9020C50B9918688083CA6AAAA4C
:1000F0002ABE000000803F0011241FBECFEFDAE0CF
:10010000DEBFCDBF18E0A0E0B1E0E4E8F4E202C059
:1001100005900D92A032B107D9F71EE2A0E2B8E037
:1001200001C01D92A03FB107E1F70E94C8000C94E6
:1001300040120C9400000F931F93CF93DF930E9403
:10014000210F80FD03C000E010E002C000E01FE0CE
:100150000E94210F80FD03C0C0E0D0E002C0C0EFCC
:10016000D0E00E94210F80FD03C080E090E002C03B
:100170008FE090E09E01200F311F280F391F2115BD
:100180003105E9F2C901DF91CF911F910F910895D7
:100190002F923F924F925F926F927F928F929F9297
:1001A000AF92BF92CF92DF92EF92FF920F931F9385
:1001B000DF93CF93CDB7DEB7EF970FB6F894DEBFDE
:1001C0000FBECDBF0E941F080E942D0600E218E05E
:1001D0000E949B00D8018D939D938D01B8E0003A59
:1001E0001B07B1F788E190E09093E92E8093E82E09
:1001F0001BA61AA61F821E82EAA5FBA5BF0188279F
:1002000077FD8095982F0E94CB0B20E030E04AE8E4
:1002100052EC0E94EF0A20E030E040E05FE30E94F1
:10022000C8099B01AC010E94C8096CA77DA78EA7D5
:100230009FA79B01AC010E94F5096EA37FA388A72D
:1002400099A72E803F80220C331C20EA38E0220E32
:10025000331E19AA18AAA8A9B9A9BD01882777FD34
:100260008095982F0E94CB0B20E030E04AE852E4C2
:100270000E94EF0A20E030E040E05FE30E9497092F
:100280009B01AC010E94C8095B016C01A6019501AC
:100290000E94F5096AA37BA38CA39DA32EA13FA175
:1002A00048A559A50E94C8097B018C0120E030E0D7
:1002B00040E85FE30E949B0B181624F4F1011182C1
:1002C0001082DBC060E070E080E89FE3A801970146
:1002D0000E9497090E941D112B013C016CA57DA570
:1002E0008EA59FA521E43EE243E25FE30E94F5096B
:1002F0007B018C01C301B20123E530E445E45FEBEF
:100300000E94F5099B01AC01C801B7010E94C80910
:100310006AAB7BAB8CAB9DABA60195010E94400FF5
:1003200020E030E040E05FE30E94F50920ED3FE08F
:1003300049E450E40E94EF0A20E030E040E053E45A
:100340000E94F5090E94290C4B0177FF04C020E8A8
:1003500030E0820E931EC301B201A30192010E94FC
:10036000C8092CA53DA54EA55FA50E94C809A601F8
:1003700095010E94C80920E030E040E05FE30E9460
:10038000F5097B018C01A80197010E94F509A801DC
:1003900097010E94F50920E030E040EE50E40E9411
:1003A000F5090E94290C6B011616170624F041E08E
:1003B000C42ED12C06C0683071051CF037E0C32E66
:1003C000D12C6CA57DA58EA59FA523E530E445E441
:1003D0005FE30E94F5097B018C01C301B20121E4B6
:1003E0003EE243E25FE30E94F5099B01AC01C801D4
:1003F000B7010E94C8097B018C016AA97BA98CA95D
:100400009DA99B01AC010E94F5099B01AC016AA169
:100410007BA18CA19DA10E94C8099B01AC01C801D0
:10042000B7010E94400FAFE78A22992420ED3FE0F8
:1004300049E450EC0E94EF0A20E030E040E05FE346
:100440000E94C80920E030E040E852E40E94F5092B
:100450000E94290C6F7370707695762F66277795BA
:100460006795862A972A90E2C99ED02CCC24112425
:100470008C289D28F1019182808228A939A92F5FBB
:100480003F4F39AB28AB82E090E0280E391E26346E
:10049000310509F0E0CEAAA5BBA51196BBA7AAA776
:1004A000EE81FF81EA5BFF4FFF83EE83A634B10547
:1004B00009F0A2CE20913105309132053FAB2EAB31
:1004C00019AE18AE0F2EF0E04F2EF0E05F2EF0E0E8
:1004D0006F2EF0E07F2EF02DC301B20120E030E05E
:1004E00040E850EC0E94F50920E030E040E05FE396
:1004F0000E94F50920ED3FE049E450E40E94EF0A34
:1005000020E030E040E053E40E94F5090E94290C0D
:100510007D876C87C301B2010E94930F20E030E019
:1005200040E05FE30E94EF0A6E877F87888B998B9C
:10053000C301B2010E9413117B018C0120E030E065
:1005400040E05FE30E94EF0A6A8B7B8B8C8B9D8B74
:1005500017FB109517F91095C801B70120E030E09E
:1005600040E05FE30E94EF0A6E8B7F8B888F998F4C
:1005700080E090E060E070E041E850E021E830E0A9
:100580000E945705222433241D821C82882499242A
:100590008C859D85805C9F4F9FAF8EAF66E570E038
:1005A00062197309882777FD8095982F0E94CB0BDD
:1005B00020E030E042E053E40E94EF0A23E530E41B
:1005C00045E45FE30E94F5099B01AC0161E47EE232
:1005D00083E29FE30E9497099B01AC0161E47EE204
:1005E00083EA9EE30E94EF0A5B016C0120E030E0A9
:1005F00040E05FE30E94970923E530E445E45FE3D0
:100600000E94EF0A20E030E040E057E40E94F50944
:10061000688779878A879B87C601B50120E030E02B
:1006200042E053E40E94EF0A20E030E040E057E46B
:100630000E94F5097B018C012E853F8548895989E7
:100640000E94F5090E94290C7B8F6A8FC801B701AF
:100650002A893B894C895D890E94F5090E94290CF1
:100660007D8F6C8FC601B50120E030E040EE50E494
:100670000E94F5090E94290C0FE010E0061B170BE1
:1006800017FF03C000E010E005C00031110514F0B1
:100690000FE010E0688579858A859B852E893F89E2
:1006A000488D598D0E94F5090E94290CAA8DBB8D99
:1006B000EFEBFFEFAE9F6001AF9FD00CBE9FD00C61
:1006C0001124C60ED71E688579858A859B852E855F
:1006D0003F85488959890E94F5090E94290C2C8D73
:1006E0003D8D8FEB9FEF289F7001299FF00C389F65
:1006F000F00C1124E60EF71EE1E1F1E00E9FD001AF
:100700000F9FB00D1E9FB00D1124BF8FAE8F8CAE0A
:100710009DAEAA24BB2402EE1FEF6C817D816A0D81
:100720007B1D9601232F330F330B25952F703070CF
:100730008F2D99278E719070F901A3E0F595E795BB
:10074000AA95E1F7E81BF90BE25EFE4F808190E08D
:10075000209530952770307002C0959587952A9521
:10076000E2F780FD03C02E8D3F8D02C020E030E017
:10077000F701E8E0FE02E12DFF0B11243496E7704B
:10078000F07053E0EE0FFF1F5A95E1F7C60188E0C5
:100790009802812D990B1124049687709070E80FB0
:1007A000F91FEE0FFF1FE05EF74F808091808222DD
:1007B0009322E091E82EF091E92E17FDC0C0A1012F
:1007C0004E1B5F0B57FDBBC0063411050CF0B7C0C4
:1007D000463451050CF0B3C085E490E0841B950BC2
:1007E00026E430E0829FF001839FF00D929FF00D90
:1007F0001124EB5BFF4FE01BF10BEE0FFF1FE056E8
:10080000F74F30812181822F8295869587708AAF3C
:100810001BAEAAADBBADAB2B09F491C0832F922FB9
:100820009C01220F232F221F330B2F733070EEAD4C
:10083000FFAD8E0F9F1F8F779070FC01A3E0F595A1
:10084000E795AA95E1F7AFE3B0E0A21BB30B9D01DA
:1008500074E0220F331F7A95E1F7E05EFE4FE20F5E
:10086000F31F208130E0809590958770907002C0D2
:10087000359527958A95E2F720FD04C080EF882EF4
:100880008FE0982E26E430E0429FF001439FF00D68
:10089000529FF00D1124E00FF11FEE0FFF1FE056E5
:1008A000F74F21818081922F22952695277028A3CA
:1008B00019A2A8A1B9A1E1E1F1E0AE9FA001AF9F0B
:1008C000500DBE9F500D11242C853D85280F391FDA
:1008D0002F773070F901A3E0F595E795AA95E1F738
:1008E00073E0969587957A95E1F7807F9370E05E47
:1008F000FE4FE80FF91F808190E02095309527701A
:10090000307002C0959587952A95E2F780FF0EC05A
:10091000CA01880F991F2EEE3EE0822293228E702C
:100920009070880E991E9694879409C04A018FE0B2
:100930009FE088229922A0EFB0E08A2A9B2A60FFDC
:1009400009C08CAD9DADB4010E9428058CAD9DAD54
:100950009C0149010894A11CB11C0F5F1F4FB2E814
:10096000AB16B10459F0EA8DFB8DCE0EDF1E2C8D37
:100970003D8DE20EF31E8CAE9DAECFCE8C819D815F
:100980008E579F4F9D838C830894211C311C92E8C5
:100990002916310409F002CEE8ADF9AD34E0F59541
:1009A000E7953A95E1F7EF70F070AEA9BFA9EA0FAD
:1009B000FB1F80818983E8ADF9ADEF70F070EA0F1D
:1009C000FB1F80818A831B82CE0101966FEF7FE03F
:1009D00040E050E020E030E00AE710E00E94060727
:1009E000C301B2012DEC3CEC4CE45DE30E94C8096C
:1009F0002B013C0120ED3FE049EC50E40E949B0BB1
:100A0000181654F4C301B20120ED3FE049EC50E464
:100A10000E9497092B013C010E949B00E8ADF9ADB3
:100A2000EF73F070EE0FFF1FE05EF74F918380834E
:100A3000E8ADF9AD3196F9AFE8AFEF73F070EE0FB6
:100A4000FF1FE05EF74F8FEF9FE09183808344CDDF
:100A5000EF92FF920F931F938C017B0144E09595D9
:100A600087954A95E1F7907080509F4F0E94030848
:100A70008F2D992787FD9A958F70907024E0000F35
:100A8000111F2A95E1F7802B912B907080509F4F7A
:100A90000E9403088FEFE822FF24C70180509F4F78
:100AA0000E9403081F910F91FF90EF900895AF925D
:100AB000BF92CF92DF92EF92FF920F931F936C0140
:100AC0008B015A01790185E790E00E9403080E5FCF
:100AD0001F4F1070C80180509F4F0E94030882E092
:100AE00090E0E80EF91E9FEFE922FF24C701805035
:100AF0009F4F0E94030885E190E00E9403088FEF5A
:100B0000C822DD24C60180509F4F0E9403089FEF3A
:100B1000A922BB24C50180509F4F0E9403088CE589
:100B200090E00E9403081F910F91FF90EF90DF90DB
:100B3000CF90BF90AF9008950F931F938C01FB014E
:100B40009A01CB01BA01AF010E94570580E090E005
:100B5000B8010E9428051F910F9108956F927F920E
:100B60008F929F92AF92BF92CF92DF92EF92FF92BD
:100B70000F931F93CF93DF936C01FB014A015C013C
:100B800074E0B594A7947A95E1F7E92EFF24E7FC89
:100B9000FA946FE0E62254E0880F991F5A95E1F726
:100BA000E82A81E090E0AC0148195909400F511F33
:100BB0008E1B9F0B820F931FBC01469FC001479F56
:100BC000900D569F900D1124019662E070E00E94F6
:100BD000720E3B01CF01B401A90198010E94570593
:100BE00088249924BB2480E091E0A80EB91ECE2D64
:100BF000D0E0C050DF4F0C2D10E000501F4F0CC054
:100C0000C5010E940308CE010E940308C8010E948A
:100C100003080894811C911C861497048CF3DF91BF
:100C2000CF911F910F91FF90EF90DF90CF90BF90E9
:100C3000AF909F908F907F906F9008950F931F9328
:100C400060E070E040E050E021E830E001E810E0D2
:100C50000E94AE051F910F9108958AEC90E00E94CA
:100C600003088CE091E00E94030880E291E00E947A
:100C7000030880E091E00E94030881E091E00E9477
:100C800003088BEB90E00E94030881E091E00E9452
:100C9000030881ED90E00E94030884E990E00E943F
:100CA000030880E290E00E9403088FE091E00E9438
:100CB000030887EA90E00E9403088CEB90E00E9412
:100CC000030880E091E00E94030880E091E00E9428
:100CD000030882E091E00E94030881E890E00E940E
:100CE000030888E291E00E94030883E091E00E94FB
:100CF000030885E290E00E94030880E090E0A0E015
:100D0000B0E000000196A11DB11D803E23E99207CD
:100D100024E0A20720E0B207A1F78FEA90E00E944A
:100D2000030808955F926F927F928F929F92AF9285
:100D3000BF92CF92DF92EF92FF920F931F93CF93C8
:100D4000DF93562E672E742EA52E90E08097803666
:100D5000910510F080E090E06C01CC0CDD1CCC0C17
:100D6000DD1CC80ED91E83E395E0C80ED91EC9014B
:100D7000B8012B5F3F4FA901085F1F4F98010E94E8
:100D80005705EE24FF2481E0882E912CC4010E2CFF
:100D900002C0880F991F0A94E2F7B82EE60100E01E
:100DA00010E088810230110511F420E002C0298191
:100DB0002B218B2119F4872D9A2D02C0852D962D7C
:100DC000222319F4672D7A2D02C0652D762D0E94FD
:100DD00028050F5F1F4F22960330110511F7089465
:100DE000E11CF11C98E0E916F10481F6DF91CF9146
:100DF0001F910F91FF90EF90DF90CF90BF90AF9039
:100E00009F908F907F906F905F9008958F929F92A8
:100E1000AF92BF92CF92DF92EF92FF920F931F9308
:100E2000CF93DF937C014B015A01E90168010AC0AD
:100E3000B401A5019E0186010E949206269608949F
:100E4000E11CF11CF7018081882391F7DF91CF919C
:100E50001F910F91FF90EF90DF90CF90BF90AF90D8
:100E60009F908F900895AC019C01359527953595FD
:100E700027958091EE2E9091EF2E280F391F6091CB
:100E8000EC2E7091ED2E8091EA2E9091EB2E861B28
:100E9000970B02C0280F391F26173707DCF7220FE0
:100EA000331F220F331F43705070240F351FC901A9
:100EB00008950F931F938C018BEA90E00E94030822
:100EC0001070C80180509F4F0E9403081F910F911E
:100ED0000895CF93DF93E091EC2EF091ED2EC09129
:100EE000EA2ED091EB2E9E012E1B3F0B64E070E0AA
:100EF0000E94720E8091EE2E9091EF2E680F791F56
:100F0000DF01AC1BBD0BAB01620F731FCD01860F60
:100F1000971F8E179F07BCF79A01AE014E1B5F0B00
:100F2000B9012A0F3B1FCA01820F931F8C179D071F
:100F3000BCF36093EE2E7093EF2ECB010E94590705
:100F4000DF91CF910895AF92BF92CF92DF92EF924F
:100F5000FF920F931F938C017B016A0159018AEA6A
:100F600090E00E9403081070C80180509F4F0E94BB
:100F700003088FEFE822FF24C70180509F4F0E9493
:100F800003088FEFC822DD24C60180509F4F0E94C6
:100F900003088FEFA822BB24C50180509F4F0E94F9
:100FA00003081F910F91FF90EF90DF90CF90BF90BB
:100FB000AF900895FB0164E070E00E94720E9B0107
:100FC0007093EB2E6093EA2ECF0164E070E00E94F4
:100FD000720EAB01420F531F5093ED2E4093EC2E37
:100FE0003093EF2E2093EE2E41505040C901BA01AC
:100FF00020E030E00E94A3078091EE2E9091EF2E2A
:101000000E9459070895589890FF02C05A9A01C04B
:101010005A985998982F599A40E820E030E0842F48
:10102000892311F05A9A01C05A9859984695599AAD
:101030002F5F3F4F2830310591F7589A08958AB1B4
:1010400087618AB9539859985A98589A5C9880E061
:1010500090E0A0E0B0E000000196A11DB11D803E2F
:1010600023E9920724E0A20720E0B207A1F75C9AE7
:10107000599A5A9A80E090E0A0E0B0E00000019612
:10108000A11DB11D803E23E9920724E0A20720E0C4
:10109000B207A1F70895A0E0B0E0E1E5F8E00C9414
:1010A000990EDC012B01FA019C91923008F439C1B0
:1010B000EB018881823008F433C1943069F48430C4
:1010C00009F02FC111969C9111978981981709F405
:1010D00028C1A3E1B7E025C1843009F421C18230E1
:1010E000A9F4923009F01DC19A01AD0188E0EA012E
:1010F0000990AE01E90109929E018150C1F7E20118
:10110000898111969C918923818308C1923009F4C9
:1011100007C112962D903C901397EB018A819B8119
:101120001496AD90BD90CD90DC901797EC80FD802B
:101130000E811F819101281B390BB90137FF04C0B3
:1011400066277727621B730B603271050CF061C054
:10115000121613066CF537014801062E04C096944A
:101160008794779467940A94D2F721E030E040E0C6
:1011700050E004C0220F331F441F551F6A95D2F759
:1011800021503040404050402E213F2140235123E8
:10119000211531054105510521F021E030E040E005
:1011A00050E079018A01E628F728082919293CC06E
:1011B000232BD1F1260E371E35014601062E04C021
:1011C00096948794779467940A94D2F721E030E05C
:1011D00040E050E004C0220F331F441F551F6A95A2
:1011E000D2F721503040404050402A213B214C2131
:1011F0005D21211531054105510521F021E030E047
:1012000040E050E059016A01A628B728C828D9282B
:101210000BC0821593052CF01C01AA24BB24650188
:1012200003C0EE24FF24870111969C91D2011196F0
:101230008C91981709F445C0992339F0A8019701BA
:101240002A193B094C095D0906C0A60195012E1912
:101250003F09400B510B57FD08C011823382228297
:1012600024833583468357831DC081E08183338285
:10127000228288279927DC01821B930BA40BB50BD4
:1012800084839583A683B7830DC0220F331F441F29
:10129000551F248335834683578382819381019729
:1012A000938382832481358146815781DA01C90184
:1012B0000197A109B1098F5F9F4FAF4FBF4328F33B
:1012C0000BC0918333822282EA0CFB1C0C1D1D1D76
:1012D000E482F5820683178383E08083248135814D
:1012E0004681578157FF1AC0C901AA2797FDA095CB
:1012F000BA2F81709070A070B07056954795379551
:101300002795822B932BA42BB52B84839583A683BF
:10131000B78382819381019693838283DF0101C029
:10132000D201CD01CDB7DEB7E2E10C94B50EA0E25B
:10133000B0E0EDE9F9E00C94A50E69837A838B8324
:101340009C832D833E834F835887E9E0EE2EF12C5A
:10135000EC0EFD1ECE010196B7010E94A10D8E017B
:101360000F5E1F4FCE010596B8010E94A10D8A891C
:1013700091E089278A8BC701B801AE01475E5F4FB4
:101380000E944B080E94CC0CA096E6E00C94C10E83
:10139000A0E2B0E0EEECF9E00C94A50E69837A834C
:1013A0008B839C832D833E834F835887F9E0EF2EF8
:1013B000F12CEC0EFD1ECE010196B7010E94A10D8D
:1013C0008E010F5E1F4FCE010596B8010E94A10D40
:1013D000C701B801AE01475E5F4F0E944B080E94F3
:1013E000CC0CA096E6E00C94C10EA0E2B0E0EBEFCE
:1013F000F9E00C94990E69837A838B839C832D8307
:101400003E834F835887CE010196BE01675F7F4FB1
:101410000E94A10DCE010596BE016F5E7F4F0E9416
:10142000A10D9985923088F089898230C8F0943076
:1014300019F4823051F404C0843029F4923081F4DC
:1014400083E197E0C6C0923049F420E09A858A890A
:10145000981321E02A87CE010996BBC0823049F457
:1014600020E09A858A89981321E02A8BCE01419643
:10147000B0C02D843E844F8458886D887E888F88C4
:10148000988CEE24FF248701AA24BB24650140E048
:1014900050E060E070E0E0E0F0E0C1018170907049
:1014A000892BE9F0E60CF71C081D191D9A01AB0108
:1014B0002A0D3B1D4C1D5D1D80E090E0A0E0B0E0DA
:1014C000E614F7040805190520F481E090E0A0E097
:1014D000B0E0BA01A901480F591F6A1F7B1FAA0C6F
:1014E000BB1CCC1CDD1C97FE08C081E090E0A0E096
:1014F000B0E0A82AB92ACA2ADB2A3196E032F105DF
:1015000049F0660C771C881C991C569447943794B4
:101510002794C3CFFA85EA892B893C898B859C85E2
:10152000280F391F2E5F3F4F17C0CA01817090707E
:10153000892B61F016950795F794E79480E090E089
:10154000A0E0B0E8E82AF92A0A2B1B2B76956795CC
:10155000579547952F5F3F4F77FDE7CF0CC0440F5E
:10156000551F661F771F17FD4160EE0CFF1C001F03
:10157000111F21503040403090E0590790E069073A
:1015800090E4790760F32B8F3C8FDB01CA018F77E2
:101590009070A070B07080349105A105B10561F420
:1015A00047FD0AC0E114F1040105110529F0405C72
:1015B0005F4F6F4F7F4F40781A8EFE1711F081E01A
:1015C0008A8F4D8F5E8F6F8F78A383E0898FCE01D6
:1015D00049960E94CC0CA096E2E10C94B50EA8E1CD
:1015E000B0E0E5EFFAE00C94A10E69837A838B8377
:1015F0009C832D833E834F835887B9E0EB2EF12CDB
:10160000EC0EFD1ECE010196B7010E94A10D8E01C8
:101610000F5E1F4FCE010596B8010E94A10D2985CE
:10162000223008F47EC03989323010F4B8017CC011
:101630008A859A8989278A87243011F0223031F4EB
:10164000231709F06EC063E177E06EC0343039F4DF
:101650001D861E861F86188A1C861B8604C0323093
:1016600021F484E08987B7015FC02B853C858B8995
:101670009C89281B390B3C872B87ED84FE840F85C2
:101680001889AD88BE88CF88D88CEA14FB040C0575
:101690001D0540F4EE0CFF1C001F111F21503040AF
:1016A0003C872B8720E030E040E050E080E090E095
:1016B000A0E0B0E460E070E0EA14FB040C051D0556
:1016C00040F0282B392B4A2B5B2BEA18FB080C091E
:1016D0001D09B695A79597958795EE0CFF1C001FE1
:1016E000111F6F5F7F4F6F31710531F7DA01C9014B
:1016F0008F779070A070B07080349105A105B1050E
:1017000061F427FD0AC0E114F1040105110529F077
:10171000205C3F4F4F4F5F4F20782D873E874F878C
:10172000588BBE01675F7F4FCB010E94CC0C68963F
:10173000EAE00C94BD0EA8E1B0E0E1EAFBE00C9415
:10174000A50E69837A838B839C832D833E834F838D
:10175000588789E0E82EF12CEC0EFD1ECE01019693
:10176000B7010E94A10D8E010F5E1F4FCE0105969D
:10177000B8010E94A10D8985823040F089898230AC
:1017800028F0C701B8010E94190E01C08FEF6896BA
:10179000E6E00C94C10EA8E0B0E0E1EDFBE00C94B3
:1017A000A20E9B01AC0183E08983DA01C90188277D
:1017B000B7FD83959927AA27BB27B82E2115310598
:1017C0004105510519F482E089833AC08823A9F0C4
:1017D000203080E0380780E0480780E8580729F487
:1017E00060E070E080E09FEC30C0EE24FF248701D1
:1017F000E21AF30A040B150B02C079018A018EE18B
:10180000C82ED12CDC82CB82ED82FE820F8318871A
:10181000C801B7010E947D0C01971816190684F4BF
:10182000082E04C0EE0CFF1C001F111F0A94D2F7F3
:10183000ED82FE820F831887C81AD90ADC82CB8218
:10184000BA82CE0101960E94CC0C2896E9E00C9455
:10185000BE0EACE0B0E0EFE2FCE00C94A90E6983B0
:101860007A838B839C83CE010196BE016B5F7F4F91
:101870000E94A10D8D81823061F1823050F184305F
:1018800021F48E81882351F12EC02F81388537FDB8
:1018900020C06E812F3131051CF06623F9F023C082
:1018A0008EE190E0821B930B29853A854B855C8500
:1018B00004C056954795379527958A95D2F76623A4
:1018C000B1F050954095309521953F4F4F4F5F4F68
:1018D0000EC020E030E040E050E009C02FEF3FEFC5
:1018E0004FEF5FE704C020E030E040E050E8B9018E
:1018F000CA012C96E2E00C94C50EEF92FF920F9372
:101900001F937B018C0180E0E81680E0F80681E0FF
:10191000080780E0180788F48FEFE816F104010546
:10192000110531F028F088E090E0A0E0B0E017C0A9
:1019300080E090E0A0E0B0E012C080E0E81680E037
:10194000F80680E0080781E0180728F088E190E0B9
:10195000A0E0B0E004C080E190E0A0E0B0E020E2D0
:1019600030E040E050E0281B390B4A0B5B0B04C011
:1019700016950795F794E7948A95D2F7F701E55EF7
:10198000F84F8081281B310941095109C9011F9174
:101990000F91FF90EF900895DF92EF92FF920F93D7
:1019A0001F93FC01E480F58006811781D18080813E
:1019B000823048F480E090E0A0E1B0E0E82AF92A23
:1019C0000A2B1B2BA5C0843009F49FC0823021F460
:1019D000EE24FF24870105C0E114F104010511057F
:1019E00019F4E0E0F0E096C0628173819FEF623805
:1019F00079070CF05BC022E83FEF261B370B2A313A
:101A000031052CF020E030E040E050E02AC0B80181
:101A1000A701022E04C076956795579547950A94BD
:101A2000D2F781E090E0A0E0B0E004C0880F991FF9
:101A3000AA1FBB1F2A95D2F70197A109B1098E21D0
:101A40009F21A023B1230097A105B10521F081E0DA
:101A500090E0A0E0B0E09A01AB01282B392B4A2B93
:101A60005B2BDA01C9018F779070A070B070803461
:101A70009105A105B10539F427FF09C0205C3F4F4E
:101A80004F4F5F4F04C0215C3F4F4F4F5F4FE0E02F
:101A9000F0E02030A0E03A07A0E04A07A0E45A07AF
:101AA00010F0E1E0F0E079018A0127C060387105AB
:101AB00064F5FB01E158FF4FD801C7018F779070A3
:101AC000A070B07080349105A105B10539F4E7FE2E
:101AD0000DC080E490E0A0E0B0E004C08FE390E0AF
:101AE000A0E0B0E0E80EF91E0A1F1B1F17FF05C09B
:101AF00016950795F794E794319687E01695079524
:101B0000F794E7948A95D1F705C0EE24FF24870166
:101B1000EFEFF0E06E2F679566276795902F9F7720
:101B2000D794DD24D7948E2F8695492F462B582F96
:101B30005D29B701CA011F910F91FF90EF90DF90CF
:101B40000895FC01DB01408151812281622F6F7772
:101B500070E0221F2227221F9381892F880F822B5A
:101B6000282F30E0991F9927991F11969C93119760
:101B700021153105A9F5411551056105710511F4CE
:101B800082E037C082E89FEF13969C938E93129762
:101B90009A01AB0167E0220F331F441F551F6A955E
:101BA000D1F783E08C930DC0220F331F441F551FC4
:101BB00012968D919C911397019713969C938E93F7
:101BC0001297203080E0380780E0480780E458070B
:101BD00058F314962D933D934D935C931797089566
:101BE0002F3F310579F4411551056105710519F44F
:101BF00084E08C93089564FF03C081E08C9312C04D
:101C00001C9210C02F57304013963C932E9312977E
:101C100083E08C9387E0440F551F661F771F8A95DA
:101C2000D1F7706414964D935D936D937C931797E1
:101C300008951F93DC01FB019C91923008F447C08A
:101C40008081823008F443C0943051F411961C9185
:101C5000843099F58181682F70E0611B71093FC064
:101C6000843021F0923031F48230B9F181818823BF
:101C700089F12DC011961C9111978230F1F081816C
:101C80001817D9F412962D913C9113978281938164
:101C90008217930794F028173907BCF014968D919A
:101CA0009D910D90BC91A02D248135814681578155
:101CB000281739074A075B0718F4112341F00AC0B7
:101CC00082179307A407B50740F4112319F061E0C8
:101CD00070E005C06FEF7FEF02C060E070E0CB0105
:101CE0001F91089597FB092E07260AD077FD04D08F
:101CF0000CD006D000201AF4709561957F4F08959E
:101D0000F6F7909581959F4F0895AA1BBB1B51E153
:101D100007C0AA1FBB1FA617B70710F0A61BB70B5B
:101D2000881F991F5A95A9F780959095BC01CD0100
:101D300008952F923F924F925F926F927F928F926F
:101D40009F92AF92BF92CF92DF92EF92FF920F934A
:101D50001F93CF93DF93CDB7DEB7CA1BDB0B0FB654
:101D6000F894DEBF0FBECDBF09942A883988488811
:101D70005F846E847D848C849B84AA84B984C884A7
:101D8000DF80EE80FD800C811B81AA81B981CE0F9E
:101D9000D11D0FB6F894DEBF0FBECDBFED01089583
:101DA000A0E0B0E0E6EDFEE00C94A10EEC01A8800E
:101DB000B980CA80DB80A114B104C104D10441F40C
:101DC00084E2A82E89EDB82E8BE5C82E87E0D82EA8
:101DD000C601B5012DE133EF41E050E00E9403124E
:101DE00027EA31E440E050E00E94E4117B018C01DD
:101DF000C601B5012DE133EF41E050E00E9403122E
:101E0000CA01B9012CEE34EF4FEF5FEF0E94E411ED
:101E10006E0D7F1D801F911F97FF04C061507040A1
:101E200080409048688379838A839B839B013F77B6
:101E3000C901CDB7DEB7EAE00C94BD0E0E94D00E0A
:101E400008958BE198E00E94D00E0895A0E0B0E0E4
:101E500080931B0890931C08A0931D08B0931E0844
:101E60000895F8D058F080E891E009F49EEFF9D099
:101E700028F040E851E059F45EEF09C0C3C064C1E6
:101E8000E92FE0783FD168F3092E052AC1F3261720
:101E900037074807590738F00E2E07F8E02569F094
:101EA000E025E0640AC0EF6307F8009407FADB015D
:101EB000B9019D01DC01CA01AD01EF9344D000D10D
:101EC0000AD05F91552331F02BED3FE049E450FDFE
:101ED00049EC5ECA0895DF93DD27B92FBF7740E84C
:101EE0005FE31616170648075B0710F4D92F33D1A6
:101EF0009F938F937F936F93DED1ECEAF0E085D0D0
:101F0000DFD02F913F914F915F9136D1DD2349F082
:101F10009058A2EA2AED3FE049EC5FE3D0785D27D4
:101F2000DAD1DF91CDC0A5D0E395DBC09AD040F0E7
:101F300091D030F021F45F3F19F05EC0511105C11E
:101F400061C0E0D098F39923C9F35523B1F3951BF1
:101F5000550BBB27AA2762177307840738F09F5FCA
:101F60005F4F220F331F441FAA1FA9F333D00E2E39
:101F70003AF0E0E830D091505040E695001CCAF7A6
:101F800029D0FE2F27D0660F771F881FBB1F26176B
:101F900037074807AB07B0E809F0BB0B802DBF013E
:101FA000FF2793585F4F2AF09E3F510568F024C0E9
:101FB000CCC05F3FECF3983EDCF386957795679550
:101FC000B795F7959F5FC9F7880F911D96958795EF
:101FD00097F90895E1E0660F771F881FBB1F62170E
:101FE00073078407BA0720F0621B730B840BBA0BCC
:101FF000EE1F88F7E095089597F99F6780E870E0F5
:1020000060E008959FEF80EC0895DF93CF931F93D6
:102010000F93FF92EF92DF927B018C01689405C0D1
:10202000DA2EEF01A9D0FE01E894A5912591359112
:1020300045915591AEF3EF014ED1FE019701A801F4
:10204000DA9479F7DF90EF90FF900F911F91CF9185
:10205000DF91089500240A9416161706180609063B
:10206000089500240A94121613061406050608950E
:10207000C9CF50D0E8F3E894E0E0BB279F57F0F0D9
:102080002AED3FE049EC06C0EE0FBB0F661F771F3D
:10209000881F28F0B23A62077307840728F0B25A03
:1020A000620B730B840BE3959A9572F7803830F4CA
:1020B0009A95BB0F661F771F881FD2F7904860C1A3
:1020C000092E0394000C11F4882352F0BB0F40F446
:1020D000BF2B11F460FF04C06F5F7F4F8F4F9F4F86
:1020E0000895EF93E0FF06C0A2EA2AED3FE049EC35
:1020F0005FEBF1D0E5DF0F90039401FC9058E9ED20
:10210000F0E051C157FD9058440F551F59F05F3F03
:1021100071F04795880F97FB991F61F09F3F79F009
:1021200087950895121613061406551FF2CF46958B
:10213000F1DF08C0161617061806991FF1CF86950D
:102140007105610508940895E894BB2766277727F1
:10215000CB0197F908959B01AC0160E070E080E845
:102160009FE33DCA77DF28F07CDF18F0952309F064
:1021700043CF48CF1124E9CFC5DFA0F3959FD1F31A
:10218000950F50E0551F629FF001729FBB27F00D25
:10219000B11D639FAA27F00DB11DAA1F649F66277A
:1021A000B00DA11D661F829F2227B00DA11D621FC9
:1021B000739FB00DA11D621F839FA00D611D221F83
:1021C000749F3327A00D611D231F849F600D211D67
:1021D000822F762F6A2F11249F5750408AF0E1F00A
:1021E00088234AF0EE0FFF1FBB1F661F771F881F53
:1021F00091505040A9F79E3F510570F0FDCEA5CFFC
:102200005F3FECF3983EDCF3869577956795B7953D
:10221000F795E7959F5FC1F7FE2B880F911D969567
:10222000879597F908959F9324DF0F9007FCEE5F41
:1022300058CF11F40EF4E6CEA1C06CDFD0F3992391
:10224000D9F3CEF39F57550B87FFA6D00024A0E605
:1022500040EA900180585695979528F4805C660F67
:10226000771F881F20F026173707480730F4621BB6
:10227000730B840B202931294A2BA69517940794B8
:10228000202531254A2758F7660F771F881F20F031
:1022900026173707480730F4620B730B840B200DA9
:1022A000311D411DA09581F7B901842F9158880FE8
:1022B0009695879508959B01AC0197C8CBDE30F0C9
:1022C000D0DE20F031F49F3F11F41EF49BCE0EF4CB
:1022D000E095E7FB91CEE92F15DF80F3BA1762078F
:1022E00073078407950718F071F49EF52DCF0EF44F
:1022F000E0950B2EBA2FA02D0B01B90190010C0116
:10230000CA01A0011124FF27591B99F0593F50F42D
:10231000503E68F11A16F040A22F232F342F442785
:10232000585FF3CF469537952795A795F04053957D
:10233000C9F77EF41F16BA0B620B730B840BBAF04D
:102340009150A1F0FF0FBB1F661F771F881FC2F7B8
:102350000EC0BA0F621F731F841F48F487957795CC
:102360006795B795F7959E3F08F0B3CF9395880F83
:1023700008F09927EE0F9795879508959F3F31F0C4
:10238000915020F4879577956795B795880F911DA3
:102390009695879597F9089591505040660F771F4D
:1023A000881FD2F708959F938F937F936F93FF9326
:1023B000EF939B01AC0119D8EF91FF9126DE2F918D
:1023C0003F914F915F9111C8629FD001739FF001BF
:1023D000829FE00DF11D649FE00DF11D929FF00DB5
:1023E000839FF00D749FF00D659FF00D9927729FEC
:1023F000B00DE11DF91F639FB00DE11DF91FBD0177
:10240000CF011124089597FB092E05260ED057FD04
:1024100004D014D00AD0001C38F450954095309563
:1024200021953F4F4F4F5F4F0895F6F79095809558
:10243000709561957F4F8F4F9F4F0895A1E21A2E9F
:10244000AA1BBB1BFD010DC0AA1FBB1FEE1FFF1F58
:10245000A217B307E407F50720F0A21BB30BE40BA8
:10246000F50B661F771F881F991F1A9469F76095EF
:102470007095809590959B01AC01BD01CF010895A9
:04248000F894FFCFFE
:102484000000000003E006200C000C000E0007C052
:1024940001E000700030003008600FC00000000050
:1024A400FFFFFFFFFFFFFFFFFFFFFFFFFFFFFFFF38
:1024B400FFFFFFFFFFFFFFFFFFFFFFFFFFFFFFFF28
:1024C400FFFFFFFFFFFEFFFFFFFFFFFFFFFFFFFF19
:1024D400FFFFFFFF8080007FFFFFFFFFFFFFFFFF85
:1024E400FFFFFFFF8780007FF9FFFFFFFFFFFFFF74
:1024F400FFFFFFFFEFF000FFFFFFFFFE01FFFFFF05
:10250400FFFFFC1F83F800FFFFFFFFB00003C3FFC2
:10251400FC03821D84FC03FFFC0FFBA00000007180
:10252400FC0004005CB80FFFF807802000000000E6
:10253400FE000001FEFC7FFFE1000000000000013E
:10254400F8000103F1FF7FFFC1400000000001CF4C
:10255400FF7F0003F0FFFFFFF3C0000000003FBF58
:10256400FFFF8000383FFFFCFE0000000000FF3F3B
:10257400FFFFC000100FFFFEC000000000003FFF7F
:10258400FFFFE0000027FFFF0000000000003FFF06
:10259400FFFFF000C077FFFF0000000000003FFFD6
:1025A400FFFFF000707FFFFF0018440000007FFF72
:1025B400FFFFF00043FFFFF8FEFE60000003FFFF93
:1025C400FFFFF00003FFFFF8FFC060000033FFFFD0
:1025D400FFFFF80007FFFFFFFFF82000001FBFFF09
:1025E400FFFFFC000FFFFFFC06F80000001FFFFFC9
:1025F400FFFFFF00DFFFFFF000000000001FFFFFF0
:10260400FFFFFF83FFFFFFE000082000001FFFFF24
:10261400FFFFFFC7FFFFFFE000003F00001FFFFFB9
:10262400FFFFFFE3FFFFFFE000040780007FFFFFE1
:10263400FFFFFFF27FFFFFE000060FC3C3FFFFFFB2
:10264400FFFFFFFEFFFFFFE000061FC7E1FFFFFFE4
:10265400FFFFFFFFBFFFFFE00001FFC7F1FFFFFF28
:10266400FFFFFFFFFC3FFFE000003FFFFBFFFFFF1A
:10267400FFFFFFFFF00FFFF000003FFFFFFFFFFF32
:10268400FFFFFFFFF007FFF2C0007FFFFFBFFFFF68
:10269400FFFFFFFFF003FFFFE000FFFFE73FFFFF47
:1026A400FFFFFFFFF001FFFFE001FFFFFE7FFFFFE1
:1026B400FFFFFFFFE0007FFFF003FFFFF3FF9FFF3B
:1026C400FFFFFFFFF0000FFFF807FFFFFFFFCFFF43
:1026D400FFFFFFFFF0000FFFF807FFFFFFFFFFFF03
:1026E400FFFFFFFFF0001FFFF803FFFFFFFEFFFFE8
:1026F400FFFFFFFFFC003FFFF003BFFFFFF0EFFF12
:10270400FFFFFFFFFC003FFFF0073FFFFFF00FFF5D
:10271400FFFFFFFFFE003FFFF8077FFFFFC007FF3B
:10272400FFFFFFFFFE007FFFF8077FFFFF8003FF2F
:10273400FFFFFFFFFE01FFFFF80FFFFFFF8003FF16
:10274400FFFFFFFFFE01FFFFFC1FFFFFFF8003FFF2
:10275400FFFFFFFFFE03FFFFFE3FFFFFFF8203FFBC
:10276400FFFFFFFFFE07FFFFFFFFFFFFFFFF83FFEA
:10277400FFFFFFFFFC0FFFFFFFFFFFFFFFFFC3FF94
:10278400FFFFFFFFFC3FFFFFFFFFFFFFFFFFFFFF18
:10279400FFFFFFFFFC7FFFFFFFFFFFFFFFFFFFFFC8
:1027A400FFFFFFFFFC7FFFFFFFFFFFFFFFFFFFFFB8
:1027B400FFFFFFFFF8FFFFFFFFFFFFFFFFFFFFFF2C
:1027C400FFFFFFFFF8FFFFFFFFFFFFFFFFFFFFFF1C
:1027D400FFFFFFFFFFFFFFFFFFFFFFFFFFFFFFFF05
:1027E400FFFFFFFFFFFFFFFFFFFFFFFFFFFFFFFFF5
:1027F400FFFFFFFFFFFFFFFFFFFFFFFFFFFFFFFFE5
:10280400FFFFFFFFFFFFFFFFFFFFFFFFFFFFFFFFD4
:10281400FFFFFFFFFFBFFFFFFFFFFFFFFFFFFFFF04
:10282400FFFFFFFFFF1FFFFFFFFF00F0000007FF98
:10283400FFFFFFFFFC3FFFFC000000000000003F23
:10284400FFFFFFE0603FFF80000000000000001F6A
:10285400FFFC0000001FFE00000000000000003F1D
:10286400FE0000000001A0000000000000000001C4
:102874000000000000000000000000000000000054
:102884000000000000000000000000000000000044
:102894000000000000000000000000000000000034
:1028A4003031323334353637383941424344454682
:1028B400002005000000000000005F000000070089
:1028C4000700147F147F14242A7F2A122313086418
:1028D4006236495522500005030000001C224100C5
:1028E4000041221C00082A1C2A0808083E08080087
:1028F400503000000808080808003030000020109C
:102904000804023E5149453E00427F400042615165
:1029140049462141454B311814127F10274545453E
:10292400393C4A4949300171090503364949493658
:10293400064949291E0036360000005636000000BC
:10294400081422411414141414412214080002011E
:10295400510906324979413E7E1111117E7F494960
:1029640049363E414141227F4141221C7F49494928
:10297400417F090901013E414151327F0808087F26
:1029840000417F41002040413F017F081422417FE4
:10299400404040407F0204027F7F0408107F3E4194
:1029A40041413E7F090909063E4151215E7F0919D3
:1029B4002946464949493101017F01013F404040D0
:1029C4003F1F2040201F7F2018207F6314081463BA
:1029D4000304780403615149454300007F414102E7
:1029E4000408102041417F00000402010204404019
:1029F400404040000102040020545454787F48446D
:102A040044383844444420384444487F3854545467
:102A140018087E090102081454543C7F0804047801
:102A240000447D40002040443D00007F10284400C5
:102A3400417F40007C041804787C080404783844FE
:102A44004444387C14141408081414187C7C0804B6
:102A540004084854545420043F4440203C4040203F
:102A64007C1C2040201C3C4030403C44281028441E
:102A74000C5050503C4464544C440008364100000F
:102A8400007F0000004136080008082A1C08081CC2
:102A94002A080800000000000000000001020203F0
:102AA40003030304040404040404040505050505E0
:102AB40005050505050505050505050606060606BD
:102AC40006060606060606060606060606060606A2
:102AD400060606060606060606060607070707078D
:102AE4000707070707070707070707070707070772
:102AF4000707070707070707070707070707070762
:102B04000707070707070707070707070707070751
:102B1400070707070707070707070708080808083C
:102B24000808080808080808080808080808080821
:102B34000808080808080808080808080808080811
:102B44000808080808080808080808080808080801
:102B540008080808080808080808080808080808F1
:102B640008080808080808080808080808080808E1
:102B740008080808080808080808080808080808D1
:102B840008080808080808080808080808080808C1
:102B940008080808080808080808080100000000D8
:00000001FF
