:100000000C9463000C948B000C948B000C948B006C
:100010000C948B000C948B000C948B000C948B0034
:100020000C948B000C948B000C948B000C948B0024
:100030000C948B000C948B000C948B000C948B0014
:100040000C943C040C948B000C94D9020C948B00FF
:100050000C948B000C948B000C948B000C948B00F4
:100060000C948B000C948B000000000024002700EF
:100070002A0000000000250028002B0000000000DE
:1000800023002600290004040404040404040202DA
:100090000202020203030303030301020408102007
:1000A0004080010204081020010204081020000012
:1000B0000007000201000003040600000000000029
:1000C00000007602CE0311241FBECFEFD8E0DEBFC2
:1000D000CDBF11E0A0E0B1E0EEE9FBE002C0059089
:1000E0000D92AC31B107D9F711E0ACE1B1E001C03C
:1000F0001D92AC3CB107E1F710E0C6ECD0E004C0C3
:100100002297FE010E94C905C23CD107C9F70E948F
:10011000D2020C94CD050C9400000F931F938C0118
:10012000FC01848160E00E94160581E090E00E945D
:10013000AE04F801848161E00E94160581E090E040
:100140000E94AE04F801848160E00E94160584E6F6
:1001500090E00E94AE041F910F910895CF92DF921C
:10016000EF92FF920F931F93CF93DF93D82EC92E58
:10017000282F392FC9018C01C0E0D0E0E62EFF24E2
:10018000F801858161E00E94F604B7010C2E02C0DF
:10019000759567950A94E2F76170F80185810E9470
:1001A000160521960F5F1F4FC830D10549F78D2DD9
:1001B0009C2D0E948D00DF91CF911F910F91FF9098
:1001C000EF90DF90CF900895CF92DF92EF92FF9261
:1001D0000F931F93CF93DF93D82EC92E282F392F3B
:1001E000C9018C01C0E0D0E0E62EFF24F801858132
:1001F00061E00E94F604B7010C2E02C07595679568
:100200000A94E2F76170F80185810E941605219633
:100210000F5F1F4FC430D10549F78D2D9C2D0E94D3
:100220008D00DF91CF911F910F91FF90EF90DF90A4
:10023000CF9008951F93CF93DF93EC01162F8A81FF
:10024000642F0E9416058B8160E00E9416058D8543
:1002500084FF05C0CE01612F0E94AE000EC0612F49
:1002600070E084E0759567958A95E1F7CE010E946C
:10027000E400CE01612F0E94E400DF91CF911F9135
:10028000089541E00E941A01089540E00E941A0179
:100290000895FC016685862F846086876C60CF0197
:1002A0000E9445010895DF93CF93CDB7DEB728971D
:1002B0000FB6F894DEBF0FBECDBF9C01FE01319694
:1002C000AAE0B1E088E00D9001928150E1F7F901D8
:1002D0008089841710F4482F4150E42FF0E0EE0F8E
:1002E000FF1FEC0FFD1F8181680F6068C9010E942C
:1002F000450128960FB6F894DEBF0FBECDBFCF9153
:10030000DF91089561E00E94450180ED97E00E9431
:10031000AE040895CF93DF93EC01423018F08D8541
:1003200088608D87488B222329F0413019F48D8510
:1003300084608D8780E593EC0E94AE048A8160E042
:100340000E9416058C8160E00E9416058B8160E09A
:100350000E9416056D8564FD1DC0CE0163E00E94FC
:10036000E40084E991E10E94AE04CE0163E00E94C2
:10037000E40084E991E10E94AE04CE0163E00E94B2
:10038000E40086E990E00E94AE04CE0162E00E94A3
:10039000E40016C06062CE010E94450184E991E14B
:1003A0000E94AE046D856062CE010E94450186E91F
:1003B00090E00E94AE046D856062CE010E9445010E
:1003C0006D856062CE010E94450184E08E87CE017A
:1003D0000E944901CE010E94820182E08F87CE01F6
:1003E00066E00E944501DF91CF9108956F927F9260
:1003F0008F92AF92CF92EF920F931F93DF93CF9391
:10040000CDB7DEB73C01162F842FF301428323833F
:100410000483E582C682A78280869D8591879E851A
:1004200092879F8593879889948761E00E94F6045C
:10043000F301838161E00E94F604F301848161E0AD
:100440000E94F604112319F0F301158603C080E120
:10045000F3018587C30160E141E020E00E948A0149
:10046000CF91DF911F910F91EF90CF90AF908F9030
:100470007F906F9008958F92AF92CF92DF92EF921C
:10048000FF920F931F93CF93DF93DC01362F542FEE
:10049000722F102FFE2CDC2C8A2C84E091E0119618
:1004A0009C938E9300D000D0EDB7FEB73196CDB7B8
:1004B000DEB71982118212821382CD0161E0432FCF
:1004C000252F072FE12ECF2CAD2C0E94F6010F9087
:1004D0000F900F900F90DF91CF911F910F91FF9090
:1004E000EF90DF90CF90AF908F900895AF92CF9222
:1004F000EF920F938CE191E06CE04BE02AE005E095
:1005000074E0E72E53E0C52E32E0A32E0E943B029A
:100510000F91EF90CF90AF9008950F931F9381EBC1
:1005200091E00E947F03882351F164E670E080E04F
:1005300090E00E9484048CE191E00E94820117C047
:100540008CE191E0612F402F0E94530181EB91E0FB
:100550000E949303682F8CE191E00E9441011F5F8C
:10056000143171F70F5F043011F010E0E9CF81EB27
:1005700091E00E947F03882311F000E0F6CF1F91E5
:100580000F9108958CE191E064E044E120E00E9445
:100590008A0181EB91E040E855E260E070E00E9462
:1005A000160308950E94BC040E94C2020E948D029C
:1005B000FDCF1F920F920FB60F9211242F933F93EE
:1005C0004F935F936F937F938F939F93AF93BF935B
:1005D000EF93FF934091C600E091AD01F091AE0121
:1005E000CF01019660E870E00E9463059C01809154
:1005F000AF019091B0012817390739F0E35DFE4F44
:1006000040833093AE012093AD01FF91EF91BF91F4
:10061000AF919F918F917F916F915F914F913F919A
:100620002F910F900FBE0F901F901895AF92BF9211
:10063000CF92DF92EF92FF920F931F93CF93DF93AE
:100640006C017A018B01DC011496AD90BC9015977A
:10065000CB01BA0122E030E040E050E00E94980572
:10066000205C3D4B404F5F4FCA01B901A801970183
:100670000E949805C901DA010197A109B109292F42
:100680003A2F4B2F552747FD5A950196A11DB11DB5
:10069000E5012883E601EE81FF8181508083EA85B0
:1006A000FB85208141E050E0CA010E8402C0880F22
:1006B000991F0A94E2F7282B2083EA85FB85208185
:1006C000CA010F8402C0880F991F0A94E2F7282BF1
:1006D0002083EA85FB858081088802C0440F551F6E
:1006E0000A94E2F7842B8083DF91CF911F910F91C1
:1006F000FF90EF90DF90CF90BF90AF900895DC0116
:100700001296ED91FC911397E058FF4F81919191D2
:1007100080589F4F20813181821B930B60E870E0ED
:100720000E9463050895CF93DF93DC011296ED914B
:10073000FC911397EF01CE57DF4F48815981E05864
:10074000FF4F80819181E058F0408417950719F49C
:100750002FEF3FEF0CC0E40FF51F2081CA01019677
:1007600060E870E00E9463059983888330E0C901E6
:10077000DF91CF910895FC01A085B18521898C91ED
:1007800090E0022E02C0959587950A94E2F780FFCB
:10079000F6CF0484F585E02D6083089586E191E02D
:1007A0009093B2018093B1018DE291E09093B401F6
:1007B0008093B30185EC90E09093B6018093B501EE
:1007C00084EC90E09093B8018093B70180EC90E0C6
:1007D0009093BA018093B90181EC90E09093BC01B1
:1007E0008093BB0186EC90E09093BE018093BD01A5
:1007F00084E08093BF0183E08093C00187E0809311
:10080000C10185E08093C20108950F931F93CF9398
:10081000DF938C01EB0109C02196D801ED91FC9189
:100820000190F081E02DC801099568816623A1F748
:10083000DF91CF911F910F910895EF92FF920F9347
:100840001F93CF93DF938C017B01EA010CC0D7018A
:100850006D917D01D801ED91FC910190F081E02D29
:10086000C80109952197209791F7DF91CF911F91AA
:100870000F91FF90EF9008951F920F920FB60F9275
:1008800011242F933F938F939F93AF93BF938091A6
:10089000C7019091C801A091C901B091CA013091DE
:1008A000CB010196A11DB11D232F2D5F2D3720F007
:1008B0002D570196A11DB11D2093CB018093C70137
:1008C0009093C801A093C901B093CA018091C3015C
:1008D0009091C401A091C501B091C6010196A11DDE
:1008E000B11D8093C3019093C401A093C501B0933F
:1008F000C601BF91AF919F918F913F912F910F9022
:100900000FBE0F901F901895EF92FF920F931F93B9
:100910007B018C018FB7F8944091C7015091C801B9
:100920006091C9017091CA018FBF2FB7F89480916F
:10093000C7019091C801A091C901B091CA012FBF10
:10094000841B950BA60BB70BE816F9060A071B07C5
:1009500060F71F910F91FF90EF900895019759F064
:10096000FC01EE0FFF1FEE0FFF1F32978FB7F894B9
:100970003197F1F78FBF0895789484B5826084BD74
:1009800084B5816084BD85B5826085BD85B5816093
:1009900085BDEEE6F0E0808181608083E1E8F0E0F3
:1009A000808182608083808181608083E0E8F0E0E4
:1009B000808181608083E1EBF0E0808184608083CE
:1009C000E0EBF0E0808181608083EAE7F0E0808105
:1009D0008460808380818260808380818160808365
:1009E0008081806880831092C1000895282F30E0B4
:1009F000C90186569F4FFC0194912A573F4FF90138
:100A00008491882391F0E82FF0E0EE0FFF1FE85962
:100A1000FF4FA591B491662329F48C919095892379
:100A20008C9308958C91892B8C930895482F50E0D6
:100A3000CA0182559F4FFC012491CA0186569F4FDF
:100A4000FC0194914A575F4FFA0134913323D1F15D
:100A5000222331F1233021F4809180008F7705C06B
:100A6000243031F4809180008F7D8093800018C005
:100A7000213019F484B58F7704C0223021F484B575
:100A80008F7D84BD0DC0263021F48091B0008F771A
:100A900005C0273029F48091B0008F7D8093B0008D
:100AA000E32FF0E0EE0FFF1FEE58FF4FA591B4913A
:100AB000662329F48C91909589238C9308958C91C9
:100AC000892B8C93089597FB092E07260AD077FD72
:100AD00004D049D006D000201AF4709561957F4F5C
:100AE0000895F6F7909581959F4F0895A1E21A2EEB
:100AF000AA1BBB1BFD010DC0AA1FBB1FEE1FFF1FC2
:100B0000A217B307E407F50720F0A21BB30BE40B11
:100B1000F50B661F771F881F991F1A9469F7609558
:100B20007095809590959B01AC01BD01CF01089512
:100B300097FB092E05260ED057FD04D0D7DF0AD02B
:100B4000001C38F450954095309521953F4F4F4FFC
:100B50005F4F0895F6F790958095709561957F4F5A
:100B60008F4F9F4F0895AA1BBB1B51E107C0AA1FBF
:100B7000BB1FA617B70710F0A61BB70B881F991F3E
:100B80005A95A9F780959095BC01CD010895EE0F77
:0E0B9000FF1F0590F491E02D0994F894FFCF1B
:100B9E0000000000410105041D0400004000140087
:0C0BAE00540000000000BB0305041D04FF
:00000001FF
