:100000000C9456000C9468000C9468000C946800E2
:100010000C9468000C9468000C9468000C946800C0
:100020000C9468000C9468000C9468000C946800B0
:100030000C9468000C9468000C9468000C946800A0
:100040000C9468000C9468000C9468000C94680090
:100050000C9468000C9468000C9468000C94680080
:100060000C9468000C946A000C9468000C9468006E
:100070000C9468000C9468000C9468000C94680060
:100080000C9468000C9468000C9468000C94680050
:100090000C9468000C9468000C9468000C94680040
:1000A0000C9468000C9468000C94680011241FBE26
:1000B000CFEFDAE0DEBFCDBF11E0A0E0B1E001C0DC
:1000C0001D92A130B107E1F70E9480000C94C50099
:1000D0000C9400001F920F920FB60F9211248F9371
:1000E000EF93FF93EEECF0E080818093000180833A
:1000F000FF91EF918F910F900FBE0F901F90189569
:100100000E9499000E94AF008091C900806880938E
:10011000C9007894479A3F9A20E931E088B18095E8
:1001200088B980E197E2F9013197F1F70197D9F7A2
:10013000F5CF1092CD0087E68093CC00E8ECF0E09C
:1001400080818D7F808308951092CD0089E1809316
:10015000CC00E8ECF0E080818D7F8083089588E119
:100160008093C90086E08093CA000895982F8091FB
:10017000C80085FFFCCF9093CE0008958091C80001
:0E01800087FFFCCF8091CE000895F894FFCF4A
:00000001FF
