:100000000C9462000C948A000C948A000C948A0070
:100010000C948A000C948A000C948A000C948A0038
:100020000C948A000C948A000C948A000C948A0028
:100030000C948A000C948A000C948A000C948A0018
:100040000C941C050C948A000C94D9020C948A0020
:100050000C948A000C948A000C948A000C948A00F8
:100060000C948A000C948A000000000024002700F1
:100070002A0000000000250028002B0000000000DE
:1000800023002600290004040404040404040202DA
:100090000202020203030303030301020408102007
:1000A0004080010204081020010204081020000012
:1000B0000007000201000003040600000000000029
:1000C0000000DA0311241FBECFEFD8E0DEBFCDBFA2
:1000D00011E0A0E0B1E0EEE5FDE002C005900D9278
:1000E000AA30B107D9F711E0AAE0B1E001C01D9232
:1000F000A43BB107E1F710E0C4ECD0E004C02297C4
:10010000FE010E94A906C23CD107C9F70E94B201B4
:100110000C94AD060C94000083E060E00E94D605CC
:1001200084E060E00E94D60585E060E00E94D6058C
:1001300083E061E00E94F60584E061E00E94F6053C
:1001400085E061E00E94F60583E061E00E94D6054B
:1001500085E061E00E94D60584E061E00E94D6055A
:1001600086E061E00E94D6050895CF93DF938DE08D
:1001700061E00E94D6058DE060E00E94F60589E905
:1001800091E040E052EC61E070E00E9416030E94B2
:100190008C000E94650280E090E00E941F0289E9C5
:1001A00091E00E94BB0368E873E180E090E00E9468
:1001B000640589E991E04BEF50E060E070E020E0F9
:1001C00030E00E94070589E991E04AE050E060E0F4
:1001D00070E020E030E00E94070589E991E04AE004
:1001E00050E060E070E020E030E00E94070589E91F
:1001F00091E04AE050E060E070E020E030E00E94F2
:10020000070589E991E04DE050E060E070E020E012
:1002100030E00E9407051092110110921201109215
:1002200014011092130189E991E00E947F03863046
:1002300008F487C0109214011092130189E991E02B
:100240000E94930380930A0189E991E00E9493033D
:1002500080930B0189E991E00E94930380930C0144
:1002600089E991E00E94930380930D0189E991E06F
:100270000E94930380930E01D0910A01C0E0809107
:100280000B01282F30E02C2B3D2B309310012093B5
:100290000F0180911101843839F4809112018F5F30
:1002A0008093120110921101C901609111014091D6
:1002B00012010E94E401809111018F5F809311016E
:1002C00089E991E00E94BB038DE061E00E94F605A0
:1002D00089E991E04AEF50E060E070E020E030E032
:1002E0000E94070540910C0150E060E070E089E950
:1002F00091E020E030E00E94070540910D0150E0C0
:1003000060E070E089E991E020E030E00E940705BC
:1003100089E991E04AE050E060E070E020E030E000
:100320000E94070589E991E04DE050E060E070E04F
:1003300020E030E00E9407058DE060E00E94F605B5
:1003400009C08091130190911401019690931401BA
:100350008093130180911201843809F064CFDF91FA
:10036000CF9108950E949C050E94B500FFCF5B9835
:100370005D9A5C985C9A90E087FF02C05D9A01C02C
:100380005D985C985C9A9F5F983011F0880FF4CF6D
:100390005B9A08951F93182F5B985D985C9881E095
:1003A00090E00E948E055C9A80E017FF02C05D9A83
:1003B00001C05D985C985C9A8F5F883011F0110FD6
:1003C000F4CF5B9A1F910895EF92FF920F931F93C2
:1003D0008C01F62EE42E85E70E94CA018F2D0E9423
:1003E000B70184E80E94B70185E10E94CA0183E851
:1003F00090E08E190E94B70182E80E94B7018CE557
:100400000E94CA01C80134E0959587953A95E1F7B5
:100410000E94B701812F992787FD9A95980194E052
:10042000220F331F9A95E1F7822B0E94B701802F8C
:100430000E94B7011F910F91FF90EF900895EF92E6
:10044000FF920F931F93CF93DF938C0185E70E9458
:10045000CA0180E00E94B70183E80E94B70185E1EC
:100460000E94CA0180E00E94B70183E80E94B701A0
:100470008CE50E94CA01C801E4E095958795EA954C
:10048000E1F7E82E212F332727FD3A95C80164E0D4
:10049000880F991F6A95E1F7F22EF82AC0E0D0E0A4
:1004A0008E2D0E94B7018F2D0E94B701802F0E94D0
:1004B000B701219681E2C438D80791F7DF91CF9137
:1004C0001F910F91FF90EF9008955C985D988AE0DE
:1004D00090E00E948E055B9A8AE090E00E948E0573
:1004E0005E985E9A5C9A5D9A8AE090E00E948E0522
:1004F0008AEC0E94CA018CE00E94B70180E20E944F
:10050000B70180E00E94B70181E00E94B7018BEB48
:100510000E94CA0181E00E94B70181ED0E94CA01D8
:1005200084E90E94CA0181E10E94CA0180E20E941E
:10053000CA018FE00E94B70183E00E94CA0187EAE6
:100540000E94CA0181E20E94CA018CEB0E94CA018A
:1005500083E00E94B70180E00E94B70182E00E9420
:10056000B70186E30E94CA0188EC0E94B7018AE3C2
:100570000E94CA0182E00E94B70181E80E94CA017C
:1005800084E20E94B70183E00E94B70185E20E94E5
:10059000CA0180E30E94B70185E20E94CA0180E09F
:1005A0000E94CA018FEA0E94CA0189E20E94CA0120
:1005B00008951F920F920FB60F9211242F933F931D
:1005C0004F935F936F937F938F939F93AF93BF935B
:1005D000EF93FF934091C600E0919501F091960151
:1005E000CF01019660E870E00E9443069C01809173
:1005F0009701909198012817390739F0EB5EFE4F6B
:1006000040833093960120939501FF91EF91BF9124
:10061000AF919F918F917F916F915F914F913F919A
:100620002F910F900FBE0F901F901895AF92BF9211
:10063000CF92DF92EF92FF920F931F93CF93DF93AE
:100640006C017A018B01DC011496AD90BC9015977A
:10065000CB01BA0122E030E040E050E00E94780691
:10066000205C3D4B404F5F4FCA01B901A801970183
:100670000E947806C901DA010197A109B109292F61
:100680003A2F4B2F552747FD5A950196A11DB11DB5
:10069000E5012883E601EE81FF8181508083EA85B0
:1006A000FB85208141E050E0CA010E8402C0880F22
:1006B000991F0A94E2F7282B2083EA85FB85208185
:1006C000CA010F8402C0880F991F0A94E2F7282BF1
:1006D0002083EA85FB858081088802C0440F551F6E
:1006E0000A94E2F7842B8083DF91CF911F910F91C1
:1006F000FF90EF90DF90CF90BF90AF900895DC0116
:100700001296ED91FC911397E058FF4F81919191D2
:1007100080589F4F20813181821B930B60E870E0ED
:100720000E9443060895CF93DF93DC011296ED916A
:10073000FC911397EF01CE57DF4F48815981E05864
:10074000FF4F80819181E058F0408417950719F49C
:100750002FEF3FEF0CC0E40FF51F2081CA01019677
:1007600060E870E00E9443069983888330E0C90105
:10077000DF91CF910895DC011296ED91FC911397D2
:10078000EE57FF4F80819181929382930895FC01EF
:10079000A085B18521898C9190E0022E02C09595AB
:1007A00087950A94E2F780FFF6CF0484F585E02D63
:1007B0006083089584E091E090939A018093990179
:1007C00085E191E090939C0180939B0185EC90E002
:1007D00090939E0180939D0184EC90E09093A00102
:1007E00080939F0180EC90E09093A2018093A101FF
:1007F00081EC90E09093A4018093A30186EC90E0BB
:100800009093A6018093A50184E08093A70183E0E3
:100810008093A80187E08093A90185E08093AA01D5
:1008200008950F931F93CF93DF938C01EB0109C0C1
:100830002196D801ED91FC910190F081E02DC80145
:10084000099568816623A1F7DF91CF911F910F91E0
:100850000895EF92FF920F931F93CF93DF938C0134
:100860007B01EA010CC0D7016D917D01D801ED91AA
:10087000FC910190F081E02DC80109952197209706
:1008800091F7DF91CF911F910F91FF90EF90089515
:100890002F923F924F925F926F927F928F929F9290
:1008A000AF92BF92CF92DF92EF92FF920F931F937E
:1008B000DF93CF93CDB7DEB7A0970FB6F894DEBF26
:1008C0000FBECDBF1C016A017B01411551056105B9
:1008D000710549F4DC01ED91FC910190F081E02D6E
:1008E00060E3099554C0882499245401422E55246C
:1008F0006624772401E010E00C0F1D1F080D191D60
:10090000C701B601A30192010E945606F801608357
:100910000894811C911CA11CB11CC701B601A30144
:1009200092010E945606C901DA016C017D01C114D1
:10093000D104E104F104F1F681E0E82EF12CEC0E93
:10094000FD1EE80CF91C3E010894611C711CD501C8
:10095000C4010197A109B1096C01C818D90814C0D4
:10096000F601EE0DFF1D60816A3010F4605D01C07C
:10097000695CD101ED91FC910190F081E02DC10104
:1009800009950894E108F1086E147F0449F7A096D0
:100990000FB6F894DEBF0FBECDBFCF91DF911F9190
:1009A0000F91FF90EF90DF90CF90BF90AF909F900E
:1009B0008F907F906F905F904F903F902F90089511
:1009C000EF92FF920F931F93CF93DF93EC017A0185
:1009D0008B0177FF0FC0E881F9810190F081E02D54
:1009E0006DE2099510950095F094E094E11CF11CDE
:1009F000011D111DCE01B801A7012AE00E94480483
:100A0000DF91CF911F910F91FF90EF900895DC013E
:100A10002115310541F4ED91FC910190F081E02D1B
:100A2000642F099508952A30310519F40E94E004D5
:100A300008950E94480408951F920F920FB60F92D6
:100A400011242F933F938F939F93AF93BF938091E4
:100A5000AF019091B001A091B101B091B20130917C
:100A6000B3010196A11DB11D232F2D5F2D3720F05D
:100A70002D570196A11DB11D2093B3018093AF01A5
:100A80009093B001A093B101B093B2018091AB01FA
:100A90009091AC01A091AD01B091AE010196A11D64
:100AA000B11D8093AB019093AC01A093AD01B093C5
:100AB000AE01BF91AF919F918F913F912F910F9078
:100AC0000FBE0F901F901895EF92FF920F931F93F8
:100AD0007B018C018FB7F8944091AF015091B00128
:100AE0006091B1017091B2018FBF2FB7F8948091DE
:100AF000AF019091B001A091B101B091B2012FBFAF
:100B0000841B950BA60BB70BE816F9060A071B0703
:100B100060F71F910F91FF90EF900895019759F0A2
:100B2000FC01EE0FFF1FEE0FFF1F32978FB7F894F7
:100B30003197F1F78FBF0895789484B5826084BDB2
:100B400084B5816084BD85B5826085BD85B58160D1
:100B500085BDEEE6F0E0808181608083E1E8F0E031
:100B6000808182608083808181608083E0E8F0E022
:100B7000808181608083E1EBF0E08081846080830C
:100B8000E0EBF0E0808181608083EAE7F0E0808143
:100B900084608083808182608083808181608083A3
:100BA0008081806880831092C1000895282F30E0F2
:100BB000C90186569F4FFC0194912A573F4FF90176
:100BC0008491882391F0E82FF0E0EE0FFF1FE859A1
:100BD000FF4FA591B491662329F48C9190958923B8
:100BE0008C9308958C91892B8C930895482F50E015
:100BF000CA0182559F4FFC012491CA0186569F4F1E
:100C0000FC0194914A575F4FFA0134913323D1F19B
:100C1000222331F1233021F4809180008F7705C0A9
:100C2000243031F4809180008F7D8093800018C043
:100C3000213019F484B58F7704C0223021F484B5B3
:100C40008F7D84BD0DC0263021F48091B0008F7758
:100C500005C0273029F48091B0008F7D8093B000CB
:100C6000E32FF0E0EE0FFF1FEE58FF4FA591B49178
:100C7000662329F48C91909589238C9308958C9107
:100C8000892B8C93089597FB092E07260AD077FDB0
:100C900004D049D006D000201AF4709561957F4F9A
:100CA0000895F6F7909581959F4F0895A1E21A2E29
:100CB000AA1BBB1BFD010DC0AA1FBB1FEE1FFF1F00
:100CC000A217B307E407F50720F0A21BB30BE40B50
:100CD000F50B661F771F881F991F1A9469F7609597
:100CE0007095809590959B01AC01BD01CF01089551
:100CF00097FB092E05260ED057FD04D0D7DF0AD06A
:100D0000001C38F450954095309521953F4F4F4F3A
:100D10005F4F0895F6F790958095709561957F4F98
:100D20008F4F9F4F0895AA1BBB1B51E107C0AA1FFD
:100D3000BB1FA617B70710F0A61BB70B881F991F7C
:100D40005A95A9F780959095BC01CD010895EE0FB5
:0E0D5000FF1F0590F491E02D0994F894FFCF59
:0A0D5E0000000000C703110429047F
:00000001FF
