:100000000C9474020C9486020C9486020C94860262
:100010000C9486020C9486020C9486020C94860240
:100020000C9486020C9486020C9486020C94860230
:100030000C9486020C9486020C9486020C94860220
:100040000C9486020C9486020C9486020C94860210
:100050000C9486020C9486020C9486020C94860200
:100060000C9486020C9486020C9486020C948602F0
:100070000C9486020C9486020C9486020C948602E0
:100080000C9486020C9486020C9486020C948602D0
:100090000C9486020C9486020C9486020C948602C0
:1000A0000C9486020C9486020C9486020080C0E0B8
:1000B000E060E0E0C08000000000000070FFFF0191
:1000C00000000000FFFFFE0000000000000F1F3CCA
:1000D000383038381F0F0300000000000000000017
:1000E00080E0E000000000000000000000000303CA
:1000F00003FFFF000000000000000000000038388F
:10010000383F3F38383800000000000000C0C0E031
:100110006060E0E0C080000000000000000100001E
:1001200080C0E0F93F1F000000000000003C3E3F9F
:100130003F3B3938383838000000000000C0E0E0AC
:100140006060E0E0C0C000000000000000010000AE
:100150003030387DEFCF000000000000001C383840
:100160003030383C1F0F010000000000000000008C
:100170000080C0E0E000000000000000E0F0F8DED9
:10018000CFC7C1FFFFC0C00000000000000000009A
:100190000000003F3F0000000000000000E0E0E041
:1001A000E0E0E0E0E0E0E00000000000003F3F3F72
:1001B00038383070F0E0000000000000001C3838D3
:1001C0003030383C1F0F010000000000000080C0EC
:1001D000C0E06060E0E0000000000000E0FEFF37EB
:1001E00039181838F0F0C00000000000000F1F1C84
:1001F000383030381F0F07000000000000E0E0E05A
:10020000E0E0E0E0E0E0E0000000000000000000CE
:1002100080E0F87E1F070100000000000000383E6B
:100220001F07010000000000000000000080C0E087
:10023000E06060E0C0C000000000000000CFFF7F71
:1002400038307070FFEFC70000000000030F1F3C44
:10025000383030381F1F0F00000000000080C0E061
:10026000E060E0E0C0800000000000000C3F7FF193
:10027000E0C0C0E1FFFFFE000000000000003830D9
:100280003038381E0F07000000000000000000009A
:10029000000000000000000000000000000000005E
:1002A0000000000000000000000000003C3C3C009A
:1002B000000000000000000000000000000000003E
:1002C00000000000000000000000000000004040AE
:1002D000404040FEFE404040404000000000000022
:1002E0000000000F0F0000000000000000000000F0
:1002F000000000000000000000000000004040403E
:10030000404040000000000000000000000000002D
:1003100000000000000000000000000000000000DD
:100320000000002F00000007000700147F147F1456
:10033000242A7F2A12C4C810264636495522500066
:1003400005030000001C2241000041221C0014088B
:100350003E081408083E0808000050300010101035
:100360001010006060000020100804023E51494552
:100370003E00427F400042615149462141454B3198
:100380001814127F1027454545393C4A4949300128
:10039000710905033649494936064949291E00367F
:1003A00036000000563600000814224100141414D0
:1003B000141400412214080201510906324959510E
:1003C0003E7E1111117E7F494949363E414141220D
:1003D0007F4141221C7F494949417F090909013E6A
:1003E0004149497A7F0808087F00417F4100204049
:1003F000413F017F081422417F404040407F020C72
:10040000027F7F0408107F3E4141413E7F09090978
:10041000063E4151215E7F09192946464949493125
:1004200001017F01013F4040403F1F2040201F3F0E
:100430004038403F6314081463070870080761518F
:10044000494543007F414100552A552A5500414105
:100450007F000402010204404040404000010204C9
:100460000020545454787F4844443838444444204D
:10047000384444487F3854545418087E0901020C0B
:100480005252523E7F0804047800447D40002040D0
:10049000443D007F1028440000417F40007C041848
:1004A00004787C0804047838444444387C141414D8
:1004B00008081414187C7C08040408485454542078
:1004C000043F4440203C4040207C1C2040201C3CF9
:1004D0004030403C44281028440C5050503C446468
:1004E000544C44000609090611241FBECFEFDAE080
:1004F000DEBFCDBF13E0A0E0B1E001C01D92A33A82
:10050000B107E1F70E9488020C94C1040C9400002A
:1005100080E090E0089588E58CBD08952A98289899
:100520008EBD0DB407FEFDCF2A9A08952A98289A09
:100530008EBD0DB407FEFDCF2A9A08950F931F9329
:10054000082F162F80680E948E02812F80640E94DF
:100550008E0210930001009301011F910F910895E5
:100560000F931F93762F769576957695472F50E0CB
:10057000677001E010E002C0000F111F6A95E2F7FA
:10058000009524E530E0429FF001439FF00D529F1B
:10059000F00D1124E80FF11DEE5FFE4F908109234D
:1005A0000083672F0E949E02802F0E9496021F9157
:1005B0000F9108951F93962F969596959695E92FEE
:1005C000F0E0677041E050E002C0440F551F6A95AB
:1005D000E2F724E530E0BF01629FF001639FF00D78
:1005E000729FF00D1124E80FF11DEE5FFE4F108198
:1005F000142B1083692F0E949E02812F0E94960265
:100600001F910895CF92DF92EF92FF920F931F9365
:10061000CF93DF9380E060E00E949E02EE24FF24EF
:1006200084E5C82ED12C80E06E2D0E949E02EC9CA9
:100630008001ED9C100DFC9C100D11240E5F1E4FCF
:10064000C0E0D0E0F80181918F010E9496022196CE
:10065000C435D105B9F70894E11CF11CF7E0EF1699
:10066000F10409F780E060E00E949E02DF91CF91E3
:100670001F910F91FF90EF90DF90CF900895CF9250
:10068000DF92EF92FF920F931F93CF93DF9380E05F
:1006900060E00E949E02EE24FF2494E5C92ED12C36
:1006A00019C080E00E94960286E0E816F1042CF45E
:1006B000C435D10514F4F801108221960F5F1F4F45
:1006C000CA35D10571F70894E11CF11CF8E0EF166A
:1006D000F10461F0EC9C8001ED9C100DFC9C100D70
:1006E00011240E5F1E4FC0E0D0E0DBCF80E060E061
:1006F0000E949E02DF91CF911F910F91FF90EF908A
:10070000DF90CF9008950F931F93CF93DF93909135
:100710000001692F70E010910101412F50E024E5A4
:1007200030E0629FF001639FF00D729FF00D112485
:10073000E40FF51FEE5FFE4F108295E0899FC00128
:100740001124DF01FC01E458FD4F9C012F573D4F60
:1007500094918C91892B8D933196E217F307C1F711
:1007600084E590E09C01629FC001639F900D729FA1
:10077000900D1124FC01EE5FFE4FE40FF51F168271
:10078000EC01012F095FFE01E10FF11DEE5FFE4F4D
:1007900080810E9496021F5F1017A9F71093010134
:1007A000DF91CF911F910F910895BF92CF92DF9269
:1007B000EF92FF920F931F93CF93DF938E3211F43A
:1007C0009AE00AC08B3211F49BE006C08D3211F41E
:1007D0009CE002C0982F9F7080E3989F70011124C5
:1007E0008CEA90E0E80EF91E32E0C32E24E5B22E2A
:1007F0008091A2038C5F6C2D0E949E02909101015A
:10080000809100018B9DE0011124C90FD11DCE5FA5
:10081000DE4F8701DD24F80184919881892B89932B
:100820000E949602D3940F5F1F4FF0E1DF1699F7F5
:10083000C39480E190E0E80EF91E95E0C916C1F678
:100840008091A203845F8093A203DF91CF911F91D7
:100850000F91FF90EF90DF90CF90BF900895CF93CE
:10086000DF93EC011092A20303C021960E94D503EE
:1008700088818823D1F78091A2038A5F63E00E9478
:100880009E02DF91CF910895CF93DF93EC0103C0D7
:1008900021960E94830388818823D1F7DF91CF912D
:1008A000089540E050E00BC020E030E00000000080
:1008B0002F5F3F4F24363105C9F74F5F5F4F481711
:1008C000590794F3089584E690E00E9451042A9811
:1008D0002C9A84E690E00E9451042C9A2A9A81E294
:1008E0000E948E0280EE0E948E0284E00E948E02A0
:1008F00083E10E948E0280E20E948E028CE00E94C0
:100900008E020E943F030895FF920F931F93CF938F
:10091000DF9310E044E5F42E0FEF80E0612F0E949A
:100920009E0290910101809100018F9DF0011124A0
:10093000E90FF11DEE5FFE4FEF01DF0190E099231B
:1009400011F0933511F400830BC0112321F4888139
:100950008860888305C0163019F48C9184608C936C
:100960009F5F319621961196943549F71F5F173096
:10097000A1F60E940203DF91CF911F910F91FF908A
:060980000895F894FFCF7A
:00000001FF
