:100000000C942A000C9447000C9447000C94470071
:100010000C9447000C9447000C9447000C94470044
:100020000C9447000C9447000C9447000C94470034
:100030000C9447000C9447000C9447000C94470024
:100040000C9447000C9447000C9447000C94470014
:100050000C94470011241FBECFE5D4E0DEBFCDBF16
:1000600010E0A0E6B0E0E8E3F4E002C005900D92F5
:10007000AA36B107D9F712E0AAE6B0E001C01D9296
:10008000AC36B107E1F70E9449000C941A020C94B7
:100090000000CF93DF930E9409020E94DD0084E6F6
:1000A00090E00E94B4010E941F0184E690E00E944B
:1000B000B4010E9401018BEF0E9412028AE00E94AB
:1000C00012028AE00E9412028AE00E9412028DE06F
:1000D0000E94120210926B0010926A00C1E0D0E000
:1000E00041C00E941602809369020E94160280930A
:1000F0006A020E94160280936E000E94160280938C
:100100006F000E9416028093700080916A02E09155
:100110006E0090916902813021F4F0E0EF58FE4FBB
:1001200003C0F0E0EF58FF4F90838AEF0E94120265
:1001300080916A020E94120280916E000E94120257
:100140008AE00E9412028DE00E94120280916A02EF
:10015000813041F480916E00873F21F4D0936B0091
:10016000C0936A0080916A0090916B00892B09F41A
:10017000B8CF80E060E00E94F20010926D00109213
:100180006C000EC0EF58FF4F80810E94EB00809101
:100190006C0090916D00019690936D0080936C00BF
:1001A000E0916C00F0916D0081E0E83FF80754F3B6
:1001B00080E090E0DF91CF9108958AE58DB9709A43
:1001C0008FEF87BB88BB0895C498C0988FB9779B81
:1001D000FECFC49A0895C498C09A8FB9779BFECF7A
:1001E000C49A08958068C498C0988FB9779BFECF51
:1001F000C49A6064C498C0986FB9779BFECFC49AC4
:10020000089580E060E00E94F20020E030E00FC03E
:10021000C498C09A1FB8779BFECFC49A01968A35BE
:100220009105B1F72F5F3F4F2830310519F080E07D
:1002300090E0EECF80E060E00E94F200089540E0A0
:1002400050E013C000000000019684369105D1F7FC
:100250002F5F3F4F2830310519F080E090E0F2CF5A
:100260004F5F5F4F4436510519F020E030E0F5CF85
:10027000C498C69840E050E013C00000000001960A
:1002800084369105D1F72F5F3F4F2830310519F0A3
:1002900080E090E0F2CF4F5F5F4F4436510519F098
:1002A00020E030E0F5CFC69AC49AC498C09881E2A5
:1002B0008FB9779BFECFC49AC498C09880EE8FB94F
:1002C000779BFECFC49AC498C09884E08FB9779B7F
:1002D000FECFC49AC498C09883E18FB9779BFECFB4
:1002E000C49AC498C09880E28FB9779BFECFC49A15
:1002F000C498C0988CE08FB9779BFECFC49A0E94B7
:1003000001010895982FC498C09A1FB8779BFECF1B
:10031000C49A85E0989FC0011124FC01E054F0408C
:100320009C012B593040205A3F4F8081C498C09A7D
:100330008FB9779BFECFC49A3196E217F307A9F7DE
:10034000C498C09A1FB8779BFECFC49A0895CF93E4
:10035000DF93EC0103C021960E94820188818823EB
:10036000D1F7DF91CF91089560E070E011C00000F7
:1003700000002F5F3F4F24363105C9F74F5F5F4FB5
:100380004830510519F020E030E0F1CF6F5F7F4F2A
:10039000681779071CF440E050E0F5CF0895EF921C
:1003A000FF920F931F9310E0EE24EA9484E0F82E5E
:1003B00008E080E0612F0E94F20080E0882311F0C5
:1003C000833531F4C498C09AEFB8779BFECF15C03F
:1003D000112331F4C498C09A0FB9779BFECF0DC09A
:1003E000163031F4C498C09AFFB8779BFECF05C091
:1003F000C498C09A1FB8779BFECFC49A8F5F84358C
:10040000E9F61F5F1730A9F61F910F91FF90EF904B
:10041000089510BC83E389B91BB888E18AB986E8DE
:1004200080BD08955D9BFECF8CB908955F9BFECF84
:080430008CB10895F894FFCF90
:0A043800000000000000002F00008B
:00000001FF
